{
  "transactions": [
    {
      "hash": "0x61563a2127e0b96f2efb768d96df548d1076ce191f74bb3bccb7df8b61d1f3c2",
      "transactionType": "CALL",
      "contractName": null,
      "contractAddress": "0x4e1dcf7ad4e460cfd30791ccc4f9c8a4f820ec67",
      "function": "createProxyWithNonce(address,bytes,uint256)",
      "arguments": [
        "0x29fcB43b46531BcA003ddC8FCB67FFE91900C762",
        "0xb63e800d0000000000000000000000000000000000000000000000000000000000000100000000000000000000000000000000000000000000000000000000000000000200000000000000000000000000000000000000000000000000000000000000000000000000000000000000000000000000000000000000000000000000000180000000000000000000000000fd0732dc9e303f09fcef3a7388ad10a83459ec99000000000000000000000000000000000000000000000000000000000000000000000000000000000000000000000000000000000000000000000000000000000000000000000000000000000000000000000000000000000000000000000000000000000000000000000000000000000000000000000000000000000000000300000000000000000000000007ce8b44ab00a95995417a95a5c47bf4ad13451f00000000000000000000000003fcc638a051c08bd15aaf4ccd8c83623d20bf57000000000000000000000000a4fd1d5914ef9cee9c24410f835bbcc9b28c4e320000000000000000000000000000000000000000000000000000000000000000",
        "98888186053192536992045742948947766683831271455493514983737178694361738871040"
      ],
      "transaction": {
        "from": "0x07ce8b44ab00a95995417a95a5c47bf4ad13451f",
        "to": "0x4e1dcf7ad4e460cfd30791ccc4f9c8a4f820ec67",
        "gas": "0x7734e",
        "value": "0x0",
        "input": "0x1688f0b900000000000000000000000029fcb43b46531bca003ddc8fcb67ffe91900c7620000000000000000000000000000000000000000000000000000000000000060daa0bad76363975e28e3dd14baaf8b3975ab51a1d2f30ec1155cf157cc13810000000000000000000000000000000000000000000000000000000000000001a4b63e800d0000000000000000000000000000000000000000000000000000000000000100000000000000000000000000000000000000000000000000000000000000000200000000000000000000000000000000000000000000000000000000000000000000000000000000000000000000000000000000000000000000000000000180000000000000000000000000fd0732dc9e303f09fcef3a7388ad10a83459ec99000000000000000000000000000000000000000000000000000000000000000000000000000000000000000000000000000000000000000000000000000000000000000000000000000000000000000000000000000000000000000000000000000000000000000000000000000000000000000000000000000000000000000300000000000000000000000007ce8b44ab00a95995417a95a5c47bf4ad13451f00000000000000000000000003fcc638a051c08bd15aaf4ccd8c83623d20bf57000000000000000000000000a4fd1d5914ef9cee9c24410f835bbcc9b28c4e32000000000000000000000000000000000000000000000000000000000000000000000000000000000000000000000000000000000000000000000000",
        "nonce": "0x0",
        "chainId": "0x279f"
      },
      "additionalContracts": [
        {
          "transactionType": "CREATE2",
          "contractName": null,
          "address": "0xbe629f05b7310e35e7c0bca4423ff3c530d0adb3",
          "initCode": "0x608060405234801561001057600080fd5b506040516101e63803806101e68339818101604052602081101561003357600080fd5b8101908080519060200190929190505050600073ffffffffffffffffffffffffffffffffffffffff168173ffffffffffffffffffffffffffffffffffffffff1614156100ca576040517f08c379a00000000000000000000000000000000000000000000000000000000081526004018080602001828103825260228152602001806101c46022913960400191505060405180910390fd5b806000806101000a81548173ffffffffffffffffffffffffffffffffffffffff021916908373ffffffffffffffffffffffffffffffffffffffff1602179055505060ab806101196000396000f3fe608060405273ffffffffffffffffffffffffffffffffffffffff600054167fa619486e0000000000000000000000000000000000000000000000000000000060003514156050578060005260206000f35b3660008037600080366000845af43d6000803e60008114156070573d6000fd5b3d6000f3fea264697066735822122003d1488ee65e08fa41e58e888a9865554c535f2c77126a82cb4c0f917f31441364736f6c63430007060033496e76616c69642073696e676c65746f6e20616464726573732070726f766964656400000000000000000000000029fcb43b46531bca003ddc8fcb67ffe91900c762"
        }
      ],
      "isFixedGasLimit": false
    }
  ],
  "receipts": [
    {
      "type": "0x2",
      "status": "0x1",
      "cumulativeGasUsed": "0x7734e",
      "logs": [
        {
          "address": "0xbe629f05b7310e35e7c0bca4423ff3c530d0adb3",
          "topics": [
            "0x141df868a6331af528e38c83b7aa03edc19be66e37ae67f9285bf4f8e3c6a1a8",
            "0x0000000000000000000000004e1dcf7ad4e460cfd30791ccc4f9c8a4f820ec67"
          ],
          "data": "0x000000000000000000000000000000000000000000000000000000000000008000000000000000000000000000000000000000000000000000000000000000020000000000000000000000000000000000000000000000000000000000000000000000000000000000000000fd0732dc9e303f09fcef3a7388ad10a83459ec99000000000000000000000000000000000000000000000000000000000000000300000000000000000000000007ce8b44ab00a95995417a95a5c47bf4ad13451f00000000000000000000000003fcc638a051c08bd15aaf4ccd8c83623d20bf57000000000000000000000000a4fd1d5914ef9cee9c24410f835bbcc9b28c4e32",
          "blockHash": "0x45cfbc3fc8a7e23cd1ef669b91eeab17e763e3c80b3b93b92256f3c3e202b786",
          "blockNumber": "0x2b46b15",
          "blockTimestamp": "0x6a58a8f1",
          "transactionHash": "0x61563a2127e0b96f2efb768d96df548d1076ce191f74bb3bccb7df8b61d1f3c2",
          "transactionIndex": "0x1",
          "logIndex": "0x1",
          "removed": false
        },
        {
          "address": "0x4e1dcf7ad4e460cfd30791ccc4f9c8a4f820ec67",
          "topics": [
            "0x4f51faf6c4561ff95f067657e43439f0f856d97c04d9ec9070a6199ad418e235",
            "0x000000000000000000000000be629f05b7310e35e7c0bca4423ff3c530d0adb3"
          ],
          "data": "0x00000000000000000000000029fcb43b46531bca003ddc8fcb67ffe91900c762",
          "blockHash": "0x45cfbc3fc8a7e23cd1ef669b91eeab17e763e3c80b3b93b92256f3c3e202b786",
          "blockNumber": "0x2b46b15",
          "blockTimestamp": "0x6a58a8f1",
          "transactionHash": "0x61563a2127e0b96f2efb768d96df548d1076ce191f74bb3bccb7df8b61d1f3c2",
          "transactionIndex": "0x1",
          "logIndex": "0x2",
          "removed": false
        }
      ],
      "logsBloom": "0x00100000000000000000000000000000000000000000000000001000000000000000000000000000000000000000000000000040000000000000000000000000000010000000000000000000000000000000000000000008000000000000000000000000000000000500000000000000000000208100000000000000000000000800000000000200000000000000000000000000000000000000000000000000000000000000000000100000000000000000000000000000000000000000000000000000000000000000000000000000000000000000000000000000000000000000080000010000000000000400100020000000000000000000000000000000",
      "transactionHash": "0x61563a2127e0b96f2efb768d96df548d1076ce191f74bb3bccb7df8b61d1f3c2",
      "transactionIndex": "0x1",
      "blockHash": "0x45cfbc3fc8a7e23cd1ef669b91eeab17e763e3c80b3b93b92256f3c3e202b786",
      "blockNumber": "0x2b46b15",
      "gasUsed": "0x7734e",
      "effectiveGasPrice": "0x1bff4e44a3",
      "from": "0x07ce8b44ab00a95995417a95a5c47bf4ad13451f",
      "to": "0x4e1dcf7ad4e460cfd30791ccc4f9c8a4f820ec67",
      "contractAddress": null
    }
  ],
  "libraries": [],
  "pending": [],
  "returns": {
    "0": {
      "internal_type": "address",
      "value": "0xbe629f05B7310E35E7c0BcA4423Ff3c530D0adB3"
    }
  },
  "timestamp": 1784195313563,
  "chain": 10143,
  "commit": null
}